{
  "address": "0xC90185B01983BD8a030250563D65746Af67FDB08",
  "abi": [
    {
      "inputs": [],
      "stateMutability": "nonpayable",
      "type": "constructor"
    },
    {
      "anonymous": false,
      "inputs": [
        {
          "indexed": true,
          "internalType": "address",
          "name": "account",
          "type": "address"
        },
        {
          "indexed": true,
          "internalType": "address",
          "name": "operator",
          "type": "address"
        },
        {
          "indexed": false,
          "internalType": "bool",
          "name": "approved",
          "type": "bool"
        }
      ],
      "name": "ApprovalForAll",
      "type": "event"
    },
    {
      "anonymous": false,
      "inputs": [
        {
          "indexed": true,
          "internalType": "address",
          "name": "previousOwner",
          "type": "address"
        },
        {
          "indexed": true,
          "internalType": "address",
          "name": "newOwner",
          "type": "address"
        }
      ],
      "name": "OwnershipTransferred",
      "type": "event"
    },
    {
      "anonymous": false,
      "inputs": [
        {
          "indexed": false,
          "internalType": "address",
          "name": "account",
          "type": "address"
        }
      ],
      "name": "Paused",
      "type": "event"
    },
    {
      "anonymous": false,
      "inputs": [
        {
          "indexed": true,
          "internalType": "address",
          "name": "operator",
          "type": "address"
        },
        {
          "indexed": true,
          "internalType": "address",
          "name": "from",
          "type": "address"
        },
        {
          "indexed": true,
          "internalType": "address",
          "name": "to",
          "type": "address"
        },
        {
          "indexed": false,
          "internalType": "uint256[]",
          "name": "ids",
          "type": "uint256[]"
        },
        {
          "indexed": false,
          "internalType": "uint256[]",
          "name": "values",
          "type": "uint256[]"
        }
      ],
      "name": "TransferBatch",
      "type": "event"
    },
    {
      "anonymous": false,
      "inputs": [
        {
          "indexed": true,
          "internalType": "address",
          "name": "operator",
          "type": "address"
        },
        {
          "indexed": true,
          "internalType": "address",
          "name": "from",
          "type": "address"
        },
        {
          "indexed": true,
          "internalType": "address",
          "name": "to",
          "type": "address"
        },
        {
          "indexed": false,
          "internalType": "uint256",
          "name": "id",
          "type": "uint256"
        },
        {
          "indexed": false,
          "internalType": "uint256",
          "name": "value",
          "type": "uint256"
        }
      ],
      "name": "TransferSingle",
      "type": "event"
    },
    {
      "anonymous": false,
      "inputs": [
        {
          "indexed": false,
          "internalType": "string",
          "name": "value",
          "type": "string"
        },
        {
          "indexed": true,
          "internalType": "uint256",
          "name": "id",
          "type": "uint256"
        }
      ],
      "name": "URI",
      "type": "event"
    },
    {
      "anonymous": false,
      "inputs": [
        {
          "indexed": false,
          "internalType": "address",
          "name": "account",
          "type": "address"
        }
      ],
      "name": "Unpaused",
      "type": "event"
    },
    {
      "inputs": [
        {
          "internalType": "address",
          "name": "account",
          "type": "address"
        },
        {
          "internalType": "uint256",
          "name": "id",
          "type": "uint256"
        }
      ],
      "name": "balanceOf",
      "outputs": [
        {
          "internalType": "uint256",
          "name": "",
          "type": "uint256"
        }
      ],
      "stateMutability": "view",
      "type": "function"
    },
    {
      "inputs": [
        {
          "internalType": "address[]",
          "name": "accounts",
          "type": "address[]"
        },
        {
          "internalType": "uint256[]",
          "name": "ids",
          "type": "uint256[]"
        }
      ],
      "name": "balanceOfBatch",
      "outputs": [
        {
          "internalType": "uint256[]",
          "name": "",
          "type": "uint256[]"
        }
      ],
      "stateMutability": "view",
      "type": "function"
    },
    {
      "inputs": [],
      "name": "contractURI",
      "outputs": [
        {
          "internalType": "string",
          "name": "",
          "type": "string"
        }
      ],
      "stateMutability": "pure",
      "type": "function"
    },
    {
      "inputs": [
        {
          "internalType": "address",
          "name": "account",
          "type": "address"
        },
        {
          "internalType": "address",
          "name": "operator",
          "type": "address"
        }
      ],
      "name": "isApprovedForAll",
      "outputs": [
        {
          "internalType": "bool",
          "name": "",
          "type": "bool"
        }
      ],
      "stateMutability": "view",
      "type": "function"
    },
    {
      "inputs": [
        {
          "internalType": "address",
          "name": "account",
          "type": "address"
        },
        {
          "internalType": "uint256",
          "name": "id",
          "type": "uint256"
        },
        {
          "internalType": "uint256",
          "name": "amount",
          "type": "uint256"
        }
      ],
      "name": "mint",
      "outputs": [],
      "stateMutability": "nonpayable",
      "type": "function"
    },
    {
      "inputs": [
        {
          "internalType": "address",
          "name": "to",
          "type": "address"
        },
        {
          "internalType": "uint256[]",
          "name": "ids",
          "type": "uint256[]"
        },
        {
          "internalType": "uint256[]",
          "name": "amounts",
          "type": "uint256[]"
        }
      ],
      "name": "mintBatch",
      "outputs": [],
      "stateMutability": "nonpayable",
      "type": "function"
    },
    {
      "inputs": [],
      "name": "name",
      "outputs": [
        {
          "internalType": "string",
          "name": "",
          "type": "string"
        }
      ],
      "stateMutability": "view",
      "type": "function"
    },
    {
      "inputs": [],
      "name": "owner",
      "outputs": [
        {
          "internalType": "address",
          "name": "",
          "type": "address"
        }
      ],
      "stateMutability": "view",
      "type": "function"
    },
    {
      "inputs": [],
      "name": "pause",
      "outputs": [],
      "stateMutability": "nonpayable",
      "type": "function"
    },
    {
      "inputs": [],
      "name": "paused",
      "outputs": [
        {
          "internalType": "bool",
          "name": "",
          "type": "bool"
        }
      ],
      "stateMutability": "view",
      "type": "function"
    },
    {
      "inputs": [],
      "name": "renounceOwnership",
      "outputs": [],
      "stateMutability": "nonpayable",
      "type": "function"
    },
    {
      "inputs": [
        {
          "internalType": "uint256",
          "name": "_tokenId",
          "type": "uint256"
        },
        {
          "internalType": "uint256",
          "name": "_salePrice",
          "type": "uint256"
        }
      ],
      "name": "royaltyInfo",
      "outputs": [
        {
          "internalType": "address",
          "name": "receiver",
          "type": "address"
        },
        {
          "internalType": "uint256",
          "name": "royaltyAmount",
          "type": "uint256"
        }
      ],
      "stateMutability": "view",
      "type": "function"
    },
    {
      "inputs": [
        {
          "internalType": "address",
          "name": "from",
          "type": "address"
        },
        {
          "internalType": "address",
          "name": "to",
          "type": "address"
        },
        {
          "internalType": "uint256[]",
          "name": "ids",
          "type": "uint256[]"
        },
        {
          "internalType": "uint256[]",
          "name": "amounts",
          "type": "uint256[]"
        },
        {
          "internalType": "bytes",
          "name": "data",
          "type": "bytes"
        }
      ],
      "name": "safeBatchTransferFrom",
      "outputs": [],
      "stateMutability": "nonpayable",
      "type": "function"
    },
    {
      "inputs": [
        {
          "internalType": "address",
          "name": "from",
          "type": "address"
        },
        {
          "internalType": "address",
          "name": "to",
          "type": "address"
        },
        {
          "internalType": "uint256",
          "name": "id",
          "type": "uint256"
        },
        {
          "internalType": "uint256",
          "name": "amount",
          "type": "uint256"
        },
        {
          "internalType": "bytes",
          "name": "data",
          "type": "bytes"
        }
      ],
      "name": "safeTransferFrom",
      "outputs": [],
      "stateMutability": "nonpayable",
      "type": "function"
    },
    {
      "inputs": [
        {
          "internalType": "address",
          "name": "operator",
          "type": "address"
        },
        {
          "internalType": "bool",
          "name": "approved",
          "type": "bool"
        }
      ],
      "name": "setApprovalForAll",
      "outputs": [],
      "stateMutability": "nonpayable",
      "type": "function"
    },
    {
      "inputs": [
        {
          "internalType": "address",
          "name": "newRecipient",
          "type": "address"
        }
      ],
      "name": "setRoyalties",
      "outputs": [],
      "stateMutability": "nonpayable",
      "type": "function"
    },
    {
      "inputs": [
        {
          "internalType": "uint256",
          "name": "tokenId",
          "type": "uint256"
        },
        {
          "internalType": "string",
          "name": "_uri",
          "type": "string"
        }
      ],
      "name": "setTokenUri",
      "outputs": [],
      "stateMutability": "nonpayable",
      "type": "function"
    },
    {
      "inputs": [
        {
          "internalType": "bytes4",
          "name": "interfaceId",
          "type": "bytes4"
        }
      ],
      "name": "supportsInterface",
      "outputs": [
        {
          "internalType": "bool",
          "name": "",
          "type": "bool"
        }
      ],
      "stateMutability": "view",
      "type": "function"
    },
    {
      "inputs": [],
      "name": "symbol",
      "outputs": [
        {
          "internalType": "string",
          "name": "",
          "type": "string"
        }
      ],
      "stateMutability": "view",
      "type": "function"
    },
    {
      "inputs": [
        {
          "internalType": "address",
          "name": "newOwner",
          "type": "address"
        }
      ],
      "name": "transferOwnership",
      "outputs": [],
      "stateMutability": "nonpayable",
      "type": "function"
    },
    {
      "inputs": [],
      "name": "unpause",
      "outputs": [],
      "stateMutability": "nonpayable",
      "type": "function"
    },
    {
      "inputs": [
        {
          "internalType": "uint256",
          "name": "tokenId",
          "type": "uint256"
        }
      ],
      "name": "uri",
      "outputs": [
        {
          "internalType": "string",
          "name": "",
          "type": "string"
        }
      ],
      "stateMutability": "view",
      "type": "function"
    }
  ],
  "transactionHash": "0x084e10f0b5cd914c9cee4ea53644946872d32b9cb547c3a184d8b134bde8710c",
  "args": [],
  "solcInputHash": "ad55613e185aeed49e86c39c023746e0",
  "bytecode": "0x60806040523480156200001157600080fd5b506040805160208101909152600081526200002c81620000da565b50620000416200003b620000f3565b6200010f565b6003805460ff60a01b1916905560408051808201909152600c8082526b15d9588cd51d5b995cd3919560a21b60209092019182526200008391600491620001c0565b50604080518082019091526004808252632b99aa2760e11b6020909201918252620000b191600591620001c0565b50600354600680546001600160a01b0319166001600160a01b03909216919091179055620002a3565b8051620000ef906002906020840190620001c0565b5050565b60006200010a6200016160201b620009261760201c565b905090565b600380546001600160a01b038381166001600160a01b0319831681179093556040519116919082907f8be0079c531659141344cd1fd0a4f28419497f9722a3daafe3b4186f6b6457e090600090a35050565b600033301415620001ba57600080368080601f0160208091040260200160405190810160405280939291908181526020018383808284376000920191909152505050503601516001600160a01b03169150620001bd9050565b50335b90565b828054620001ce9062000266565b90600052602060002090601f016020900481019282620001f257600085556200023d565b82601f106200020d57805160ff19168380011785556200023d565b828001600101855582156200023d579182015b828111156200023d57825182559160200191906001019062000220565b506200024b9291506200024f565b5090565b5b808211156200024b576000815560010162000250565b600181811c908216806200027b57607f821691505b602082108114156200029d57634e487b7160e01b600052602260045260246000fd5b50919050565b61208b80620002b36000396000f3fe608060405234801561001057600080fd5b50600436106101215760003560e01c80635c975abb116100a85780635c975abb1461023f578063715018a6146102475780638456cb591461024f5780638da5cb5b1461025757806395d89b4114610270578063a22cb46514610278578063d81d0a151461028b578063e8a3d4851461029e578063e985e9c5146102a6578063f242432a146102e2578063f2fde38b146102f557600080fd5b8062fdd58e1461012657806301ffc9a71461014c57806306fdde031461016f5780630e89341c14610184578063156e29f6146101975780632a55205a146101ac5780632a9e63c6146101de5780632eb2c2d6146101f15780633f4ba83a146102045780634e1273f41461020c57806357f7789e1461022c575b600080fd5b610139610134366004611914565b610308565b6040519081526020015b60405180910390f35b61015f61015a366004611a39565b61039e565b6040519015158152602001610143565b6101776103c9565b6040516101439190611c74565b610177610192366004611a71565b610457565b6101aa6101a536600461193d565b6104f9565b005b6101bf6101ba366004611ad6565b610521565b604080516001600160a01b039093168352602083019190915201610143565b6101aa6101ec366004611717565b610556565b6101aa6101ff366004611763565b61056a565b6101aa6105c8565b61021f61021a36600461196f565b6105da565b6040516101439190611c33565b6101aa61023a366004611a89565b61073b565b61015f6107c1565b6101aa6107d1565b6101aa6107e3565b6003546001600160a01b03166040516101439190611b7c565b6101776107f3565b6101aa6102863660046118da565b610800565b6101aa61029936600461186a565b610816565b610177610839565b61015f6102b4366004611731565b6001600160a01b03918216600090815260016020908152604080832093909416825291909152205460ff1690565b6101aa6102f0366004611808565b610859565b6101aa610303366004611717565b6108b0565b60006001600160a01b0383166103785760405162461bcd60e51b815260206004820152602a60248201527f455243313135353a2061646472657373207a65726f206973206e6f742061207660448201526930b634b21037bbb732b960b11b60648201526084015b60405180910390fd5b506000908152602081815260408083206001600160a01b03949094168352929052205490565b60006001600160e01b0319821663152a902d60e11b14806103c357506103c382610983565b92915050565b600480546103d690611eaf565b80601f016020809104026020016040519081016040528092919081815260200182805461040290611eaf565b801561044f5780601f106104245761010080835404028352916020019161044f565b820191906000526020600020905b81548152906001019060200180831161043257829003601f168201915b505050505081565b600081815260076020526040902080546060919061047490611eaf565b80601f01602080910402602001604051908101604052809291908181526020018280546104a090611eaf565b80156104ed5780601f106104c2576101008083540402835291602001916104ed565b820191906000526020600020905b8154815290600101906020018083116104d057829003601f168201915b50505050509050919050565b6105016109d3565b61051c83838360405180602001604052806000815250610a4c565b505050565b60065460009081906001600160a01b0316612710610541856103e8611e90565b61054b9190611e70565b915091509250929050565b61055e6109d3565b61056781610b40565b50565b610572610bcd565b6001600160a01b0316856001600160a01b031614806105985750610598856102b4610bcd565b6105b45760405162461bcd60e51b815260040161036f90611ccf565b6105c18585858585610bdc565b5050505050565b6105d06109d3565b6105d8610dad565b565b6060815183511461063f5760405162461bcd60e51b815260206004820152602960248201527f455243313135353a206163636f756e747320616e6420696473206c656e677468604482015268040dad2e6dac2e8c6d60bb1b606482015260840161036f565b600083516001600160401b0381111561066857634e487b7160e01b600052604160045260246000fd5b604051908082528060200260200182016040528015610691578160200160208202803683370190505b50905060005b8451811015610733576106f88582815181106106c357634e487b7160e01b600052603260045260246000fd5b60200260200101518583815181106106eb57634e487b7160e01b600052603260045260246000fd5b6020026020010151610308565b82828151811061071857634e487b7160e01b600052603260045260246000fd5b602090810291909101015261072c81611f16565b9050610697565b509392505050565b6107436109d3565b6000828152600760205260409020805461075c90611eaf565b1590506107a25760405162461bcd60e51b815260206004820152601460248201527343616e6e6f74207365742075726920747769636560601b604482015260640161036f565b6000828152600760209081526040909120825161051c9284019061156b565b600354600160a01b900460ff1690565b6107d96109d3565b6105d86000610e02565b6107eb6109d3565b6105d8610e54565b600580546103d690611eaf565b61081261080b610bcd565b8383610e98565b5050565b61081e6109d3565b61051c83838360405180602001604052806000815250610f79565b606060405180608001604052806042815260200161201460429139905090565b610861610bcd565b6001600160a01b0316856001600160a01b031614806108875750610887856102b4610bcd565b6108a35760405162461bcd60e51b815260040161036f90611ccf565b6105c185858585856110fa565b6108b86109d3565b6001600160a01b03811661091d5760405162461bcd60e51b815260206004820152602660248201527f4f776e61626c653a206e6577206f776e657220697320746865207a65726f206160448201526564647265737360d01b606482015260840161036f565b61056781610e02565b60003330141561097d57600080368080601f0160208091040260200160405190810160405280939291908181526020018383808284376000920191909152505050503601516001600160a01b031691506109809050565b50335b90565b60006001600160e01b03198216636cdb3d1360e11b14806109b457506001600160e01b031982166303a24d0760e21b145b806103c357506301ffc9a760e01b6001600160e01b03198316146103c3565b6109db610bcd565b6001600160a01b03166109f66003546001600160a01b031690565b6001600160a01b0316146105d85760405162461bcd60e51b815260206004820181905260248201527f4f776e61626c653a2063616c6c6572206973206e6f7420746865206f776e6572604482015260640161036f565b6001600160a01b038416610a725760405162461bcd60e51b815260040161036f90611df4565b6000610a7c610bcd565b90506000610a898561123d565b90506000610a968561123d565b9050610aa783600089858589611296565b6000868152602081815260408083206001600160a01b038b16845290915281208054879290610ad7908490611e58565b909155505060408051878152602081018790526001600160a01b03808a1692600092918716917fc3d58168c5ae7397731d063d5bbf3d657854427343f4c083240f7aacaa2d0f62910160405180910390a4610b37836000898989896112a3565b50505050505050565b6001600160a01b038116610bab5760405162461bcd60e51b815260206004820152602c60248201527f526f79616c746965733a206e657720726563697069656e74206973207468652060448201526b7a65726f206164647265737360a01b606482015260840161036f565b600680546001600160a01b0319166001600160a01b0392909216919091179055565b6000610bd7610926565b905090565b8151835114610bfd5760405162461bcd60e51b815260040161036f90611dac565b6001600160a01b038416610c235760405162461bcd60e51b815260040161036f90611d1d565b6000610c2d610bcd565b9050610c3d818787878787611296565b60005b8451811015610d3f576000858281518110610c6b57634e487b7160e01b600052603260045260246000fd5b602002602001015190506000858381518110610c9757634e487b7160e01b600052603260045260246000fd5b602090810291909101810151600084815280835260408082206001600160a01b038e168352909352919091205490915081811015610ce75760405162461bcd60e51b815260040161036f90611d62565b6000838152602081815260408083206001600160a01b038e8116855292528083208585039055908b16825281208054849290610d24908490611e58565b9250508190555050505080610d3890611f16565b9050610c40565b50846001600160a01b0316866001600160a01b0316826001600160a01b03167f4a39dc06d4c0dbc64b70af90fd698a233a518aa5d07e595d983b8c0526c8f7fb8787604051610d8f929190611c46565b60405180910390a4610da581878787878761140e565b505050505050565b610db56114d8565b6003805460ff60a01b191690557f5db9ee0a495bf2e6ff9c91a7834c1ba4fdd244a5e8aa4e537bd38aeae4b073aa610deb610bcd565b604051610df89190611b7c565b60405180910390a1565b600380546001600160a01b038381166001600160a01b0319831681179093556040519116919082907f8be0079c531659141344cd1fd0a4f28419497f9722a3daafe3b4186f6b6457e090600090a35050565b610e5c611523565b6003805460ff60a01b1916600160a01b1790557f62e78cea01bee320cd4e420270b5ea74000d11b0c9f74754ebdbfc544b05a258610deb610bcd565b816001600160a01b0316836001600160a01b03161415610f0c5760405162461bcd60e51b815260206004820152602960248201527f455243313135353a2073657474696e6720617070726f76616c20737461747573604482015268103337b91039b2b63360b91b606482015260840161036f565b6001600160a01b03838116600081815260016020908152604080832094871680845294825291829020805460ff191686151590811790915591519182527f17307eab39ab6107e8899845ad3d59bd9653f200f220920489ca2b5937696c31910160405180910390a3505050565b6001600160a01b038416610f9f5760405162461bcd60e51b815260040161036f90611df4565b8151835114610fc05760405162461bcd60e51b815260040161036f90611dac565b6000610fca610bcd565b9050610fdb81600087878787611296565b60005b84518110156110925783818151811061100757634e487b7160e01b600052603260045260246000fd5b602002602001015160008087848151811061103257634e487b7160e01b600052603260045260246000fd5b602002602001015181526020019081526020016000206000886001600160a01b03166001600160a01b03168152602001908152602001600020600082825461107a9190611e58565b9091555081905061108a81611f16565b915050610fde565b50846001600160a01b031660006001600160a01b0316826001600160a01b03167f4a39dc06d4c0dbc64b70af90fd698a233a518aa5d07e595d983b8c0526c8f7fb87876040516110e3929190611c46565b60405180910390a46105c18160008787878761140e565b6001600160a01b0384166111205760405162461bcd60e51b815260040161036f90611d1d565b600061112a610bcd565b905060006111378561123d565b905060006111448561123d565b9050611154838989858589611296565b6000868152602081815260408083206001600160a01b038c168452909152902054858110156111955760405162461bcd60e51b815260040161036f90611d62565b6000878152602081815260408083206001600160a01b038d8116855292528083208985039055908a168252812080548892906111d2908490611e58565b909155505060408051888152602081018890526001600160a01b03808b16928c821692918816917fc3d58168c5ae7397731d063d5bbf3d657854427343f4c083240f7aacaa2d0f62910160405180910390a4611232848a8a8a8a8a6112a3565b505050505050505050565b6040805160018082528183019092526060916000919060208083019080368337019050509050828160008151811061128557634e487b7160e01b600052603260045260246000fd5b602090810291909101015292915050565b61129e611523565b610da5565b6001600160a01b0384163b15610da55760405163f23a6e6160e01b81526001600160a01b0385169063f23a6e61906112e79089908990889088908890600401611bee565b602060405180830381600087803b15801561130157600080fd5b505af1925050508015611331575060408051601f3d908101601f1916820190925261132e91810190611a55565b60015b6113de5761133d611f5d565b806308c379a014156113775750611352611f74565b8061135d5750611379565b8060405162461bcd60e51b815260040161036f9190611c74565b505b60405162461bcd60e51b815260206004820152603460248201527f455243313135353a207472616e7366657220746f206e6f6e2d455243313135356044820152732932b1b2b4bb32b91034b6b83632b6b2b73a32b960611b606482015260840161036f565b6001600160e01b0319811663f23a6e6160e01b14610b375760405162461bcd60e51b815260040161036f90611c87565b6001600160a01b0384163b15610da55760405163bc197c8160e01b81526001600160a01b0385169063bc197c81906114529089908990889088908890600401611b90565b602060405180830381600087803b15801561146c57600080fd5b505af192505050801561149c575060408051601f3d908101601f1916820190925261149991810190611a55565b60015b6114a85761133d611f5d565b6001600160e01b0319811663bc197c8160e01b14610b375760405162461bcd60e51b815260040161036f90611c87565b6114e06107c1565b6105d85760405162461bcd60e51b815260206004820152601460248201527314185d5cd8589b194e881b9bdd081c185d5cd95960621b604482015260640161036f565b61152b6107c1565b156105d85760405162461bcd60e51b815260206004820152601060248201526f14185d5cd8589b194e881c185d5cd95960821b604482015260640161036f565b82805461157790611eaf565b90600052602060002090601f01602090048101928261159957600085556115df565b82601f106115b257805160ff19168380011785556115df565b828001600101855582156115df579182015b828111156115df5782518255916020019190600101906115c4565b506115eb9291506115ef565b5090565b5b808211156115eb57600081556001016115f0565b60006001600160401b0383111561161d5761161d611f47565b604051611634601f8501601f191660200182611eea565b80915083815284848401111561164957600080fd5b83836020830137600060208583010152509392505050565b80356001600160a01b038116811461167857600080fd5b919050565b600082601f83011261168d578081fd5b8135602061169a82611e35565b6040516116a78282611eea565b8381528281019150858301600585901b870184018810156116c6578586fd5b855b858110156116e4578135845292840192908401906001016116c8565b5090979650505050505050565b600082601f830112611701578081fd5b61171083833560208501611604565b9392505050565b600060208284031215611728578081fd5b61171082611661565b60008060408385031215611743578081fd5b61174c83611661565b915061175a60208401611661565b90509250929050565b600080600080600060a0868803121561177a578081fd5b61178386611661565b945061179160208701611661565b935060408601356001600160401b03808211156117ac578283fd5b6117b889838a0161167d565b945060608801359150808211156117cd578283fd5b6117d989838a0161167d565b935060808801359150808211156117ee578283fd5b506117fb888289016116f1565b9150509295509295909350565b600080600080600060a0868803121561181f578081fd5b61182886611661565b945061183660208701611661565b9350604086013592506060860135915060808601356001600160401b0381111561185e578182fd5b6117fb888289016116f1565b60008060006060848603121561187e578283fd5b61188784611661565b925060208401356001600160401b03808211156118a2578384fd5b6118ae8783880161167d565b935060408601359150808211156118c3578283fd5b506118d08682870161167d565b9150509250925092565b600080604083850312156118ec578182fd5b6118f583611661565b915060208301358015158114611909578182fd5b809150509250929050565b60008060408385031215611926578182fd5b61192f83611661565b946020939093013593505050565b600080600060608486031215611951578081fd5b61195a84611661565b95602085013595506040909401359392505050565b60008060408385031215611981578182fd5b82356001600160401b0380821115611997578384fd5b818501915085601f8301126119aa578384fd5b813560206119b782611e35565b6040516119c48282611eea565b8381528281019150858301600585901b870184018b10156119e3578889fd5b8896505b84871015611a0c576119f881611661565b8352600196909601959183019183016119e7565b5096505086013592505080821115611a22578283fd5b50611a2f8582860161167d565b9150509250929050565b600060208284031215611a4a578081fd5b813561171081611ffd565b600060208284031215611a66578081fd5b815161171081611ffd565b600060208284031215611a82578081fd5b5035919050565b60008060408385031215611a9b578182fd5b8235915060208301356001600160401b03811115611ab7578182fd5b8301601f81018513611ac7578182fd5b611a2f85823560208401611604565b60008060408385031215611ae8578182fd5b50508035926020909101359150565b6000815180845260208085019450808401835b83811015611b2657815187529582019590820190600101611b0a565b509495945050505050565b60008151808452815b81811015611b5657602081850181015186830182015201611b3a565b81811115611b675782602083870101525b50601f01601f19169290920160200192915050565b6001600160a01b0391909116815260200190565b6001600160a01b0386811682528516602082015260a060408201819052600090611bbc90830186611af7565b8281036060840152611bce8186611af7565b90508281036080840152611be28185611b31565b98975050505050505050565b6001600160a01b03868116825285166020820152604081018490526060810183905260a060808201819052600090611c2890830184611b31565b979650505050505050565b6020815260006117106020830184611af7565b604081526000611c596040830185611af7565b8281036020840152611c6b8185611af7565b95945050505050565b6020815260006117106020830184611b31565b60208082526028908201527f455243313135353a204552433131353552656365697665722072656a656374656040820152676420746f6b656e7360c01b606082015260800190565b6020808252602e908201527f455243313135353a2063616c6c6572206973206e6f7420746f6b656e206f776e60408201526d195c881bdc88185c1c1c9bdd995960921b606082015260800190565b60208082526025908201527f455243313135353a207472616e7366657220746f20746865207a65726f206164604082015264647265737360d81b606082015260800190565b6020808252602a908201527f455243313135353a20696e73756666696369656e742062616c616e636520666f60408201526939103a3930b739b332b960b11b606082015260800190565b60208082526028908201527f455243313135353a2069647320616e6420616d6f756e7473206c656e677468206040820152670dad2e6dac2e8c6d60c31b606082015260800190565b60208082526021908201527f455243313135353a206d696e7420746f20746865207a65726f206164647265736040820152607360f81b606082015260800190565b60006001600160401b03821115611e4e57611e4e611f47565b5060051b60200190565b60008219821115611e6b57611e6b611f31565b500190565b600082611e8b57634e487b7160e01b81526012600452602481fd5b500490565b6000816000190483118215151615611eaa57611eaa611f31565b500290565b600181811c90821680611ec357607f821691505b60208210811415611ee457634e487b7160e01b600052602260045260246000fd5b50919050565b601f8201601f191681016001600160401b0381118282101715611f0f57611f0f611f47565b6040525050565b6000600019821415611f2a57611f2a611f31565b5060010190565b634e487b7160e01b600052601160045260246000fd5b634e487b7160e01b600052604160045260246000fd5b600060033d111561098057600481823e5160e01c90565b600060443d1015611f825790565b6040516003193d81016004833e81513d6001600160401b038160248401118184111715611fb157505050505090565b8285019150815181811115611fc95750505050505090565b843d8701016020828501011115611fe35750505050505090565b611ff260208286010187611eea565b509095945050505050565b6001600160e01b03198116811461056757600080fdfe697066733a2f2f6261666b726569666c766c623369716b376d3667786b6577613273666769696d7278686165646374667a73357474623461706177706f6337786c6da26469706673582212201867943d70d1d0a0522376aa1544fdc867a1edff6b47fd6ae7f585cc5db49eb564736f6c63430008040033",
  "devdoc": {
    "custom:security-contact": "<security email address>",
    "kind": "dev",
    "methods": {
      "balanceOf(address,uint256)": {
        "details": "See {IERC1155-balanceOf}. Requirements: - `account` cannot be the zero address."
      },
      "balanceOfBatch(address[],uint256[])": {
        "details": "See {IERC1155-balanceOfBatch}. Requirements: - `accounts` and `ids` must have the same length."
      },
      "contractURI()": {
        "details": "Contract-level metadata for OpenSea. "
      },
      "isApprovedForAll(address,address)": {
        "details": "See {IERC1155-isApprovedForAll}."
      },
      "owner()": {
        "details": "Returns the address of the current owner."
      },
      "paused()": {
        "details": "Returns true if the contract is paused, and false otherwise."
      },
      "renounceOwnership()": {
        "details": "Leaves the contract without owner. It will not be possible to call `onlyOwner` functions anymore. Can only be called by the current owner. NOTE: Renouncing ownership will leave the contract without an owner, thereby removing any functionality that is only available to the owner."
      },
      "safeBatchTransferFrom(address,address,uint256[],uint256[],bytes)": {
        "details": "See {IERC1155-safeBatchTransferFrom}."
      },
      "safeTransferFrom(address,address,uint256,uint256,bytes)": {
        "details": "See {IERC1155-safeTransferFrom}."
      },
      "setApprovalForAll(address,bool)": {
        "details": "See {IERC1155-setApprovalForAll}."
      },
      "transferOwnership(address)": {
        "details": "Transfers ownership of the contract to a new account (`newOwner`). Can only be called by the current owner."
      },
      "uri(uint256)": {
        "details": "URI override for OpenSea traits compatibility. "
      }
    },
    "version": 1
  },
  "userdoc": {
    "kind": "user",
    "methods": {},
    "version": 1
  },
  "storageLayout": {
    "storage": [
      {
        "astId": 265,
        "contract": "contracts/Web3Tunes.sol:Web3TunesNFT",
        "label": "_balances",
        "offset": 0,
        "slot": "0",
        "type": "t_mapping(t_uint256,t_mapping(t_address,t_uint256))"
      },
      {
        "astId": 271,
        "contract": "contracts/Web3Tunes.sol:Web3TunesNFT",
        "label": "_operatorApprovals",
        "offset": 0,
        "slot": "1",
        "type": "t_mapping(t_address,t_mapping(t_address,t_bool))"
      },
      {
        "astId": 273,
        "contract": "contracts/Web3Tunes.sol:Web3TunesNFT",
        "label": "_uri",
        "offset": 0,
        "slot": "2",
        "type": "t_string_storage"
      },
      {
        "astId": 7,
        "contract": "contracts/Web3Tunes.sol:Web3TunesNFT",
        "label": "_owner",
        "offset": 0,
        "slot": "3",
        "type": "t_address"
      },
      {
        "astId": 149,
        "contract": "contracts/Web3Tunes.sol:Web3TunesNFT",
        "label": "_paused",
        "offset": 20,
        "slot": "3",
        "type": "t_bool"
      },
      {
        "astId": 3294,
        "contract": "contracts/Web3Tunes.sol:Web3TunesNFT",
        "label": "name",
        "offset": 0,
        "slot": "4",
        "type": "t_string_storage"
      },
      {
        "astId": 3296,
        "contract": "contracts/Web3Tunes.sol:Web3TunesNFT",
        "label": "symbol",
        "offset": 0,
        "slot": "5",
        "type": "t_string_storage"
      },
      {
        "astId": 3298,
        "contract": "contracts/Web3Tunes.sol:Web3TunesNFT",
        "label": "_recipient",
        "offset": 0,
        "slot": "6",
        "type": "t_address"
      },
      {
        "astId": 3302,
        "contract": "contracts/Web3Tunes.sol:Web3TunesNFT",
        "label": "_uris",
        "offset": 0,
        "slot": "7",
        "type": "t_mapping(t_uint256,t_string_storage)"
      }
    ],
    "types": {
      "t_address": {
        "encoding": "inplace",
        "label": "address",
        "numberOfBytes": "20"
      },
      "t_bool": {
        "encoding": "inplace",
        "label": "bool",
        "numberOfBytes": "1"
      },
      "t_mapping(t_address,t_bool)": {
        "encoding": "mapping",
        "key": "t_address",
        "label": "mapping(address => bool)",
        "numberOfBytes": "32",
        "value": "t_bool"
      },
      "t_mapping(t_address,t_mapping(t_address,t_bool))": {
        "encoding": "mapping",
        "key": "t_address",
        "label": "mapping(address => mapping(address => bool))",
        "numberOfBytes": "32",
        "value": "t_mapping(t_address,t_bool)"
      },
      "t_mapping(t_address,t_uint256)": {
        "encoding": "mapping",
        "key": "t_address",
        "label": "mapping(address => uint256)",
        "numberOfBytes": "32",
        "value": "t_uint256"
      },
      "t_mapping(t_uint256,t_mapping(t_address,t_uint256))": {
        "encoding": "mapping",
        "key": "t_uint256",
        "label": "mapping(uint256 => mapping(address => uint256))",
        "numberOfBytes": "32",
        "value": "t_mapping(t_address,t_uint256)"
      },
      "t_mapping(t_uint256,t_string_storage)": {
        "encoding": "mapping",
        "key": "t_uint256",
        "label": "mapping(uint256 => string)",
        "numberOfBytes": "32",
        "value": "t_string_storage"
      },
      "t_string_storage": {
        "encoding": "bytes",
        "label": "string",
        "numberOfBytes": "32"
      },
      "t_uint256": {
        "encoding": "inplace",
        "label": "uint256",
        "numberOfBytes": "32"
      }
    }
  }
}